{
  "_format": "hh-sol-artifact-1",
  "contractName": "MechFactoryBasic",
  "sourceName": "contracts/MechFactoryBasic.sol",
  "abi": [
    {
      "anonymous": false,
      "inputs": [
        {
          "indexed": true,
          "internalType": "address",
          "name": "mech",
          "type": "address"
        },
        {
          "indexed": true,
          "internalType": "uint256",
          "name": "serviceId",
          "type": "uint256"
        },
        {
          "indexed": true,
          "internalType": "uint256",
          "name": "price",
          "type": "uint256"
        }
      ],
      "name": "CreateBasicMech",
      "type": "event"
    },
    {
      "inputs": [],
      "name": "VERSION",
      "outputs": [
        {
          "internalType": "string",
          "name": "",
          "type": "string"
        }
      ],
      "stateMutability": "view",
      "type": "function"
    },
    {
      "inputs": [
        {
          "internalType": "address",
          "name": "mechMarketplace",
          "type": "address"
        },
        {
          "internalType": "address",
          "name": "serviceRegistry",
          "type": "address"
        },
        {
          "internalType": "uint256",
          "name": "serviceId",
          "type": "uint256"
        },
        {
          "internalType": "bytes",
          "name": "payload",
          "type": "bytes"
        }
      ],
      "name": "createMech",
      "outputs": [
        {
          "internalType": "address",
          "name": "mech",
          "type": "address"
        }
      ],
      "stateMutability": "nonpayable",
      "type": "function"
    }
  ],
  "bytecode": "0x6080604052348015600e575f5ffd5b50613b7b8061001c5f395ff3fe608060405234801561000f575f5ffd5b5060043610610034575f3560e01c80632732cb0214610038578063ffa1ad7414610075575b5f5ffd5b61004b610046366004610231565b6100be565b60405173ffffffffffffffffffffffffffffffffffffffff90911681526020015b60405180910390f35b6100b16040518060400160405280600581526020017f302e312e3000000000000000000000000000000000000000000000000000000081525081565b60405161006c919061034b565b5f81516020146100cc575f5ffd5b5f828060200190518101906100e1919061039e565b604080514260208201523391810191909152606081018690529091505f90608001604051602081830303815290604052805190602001209050808686848a60405161012b906101cf565b73ffffffffffffffffffffffffffffffffffffffff94851681526020810193909352604083019190915290911660608201526080018190604051809103905ff590508015801561017d573d5f5f3e3d5ffd5b50925081858473ffffffffffffffffffffffffffffffffffffffff167f79e4ff7d5767c146d78373d8c8f9824aa5b3e949c3aeabbaceec4c4ee748080660405160405180910390a45050949350505050565b613790806103b683390190565b803573ffffffffffffffffffffffffffffffffffffffff811681146101ff575f5ffd5b919050565b7f4e487b71000000000000000000000000000000000000000000000000000000005f52604160045260245ffd5b5f5f5f5f60808587031215610244575f5ffd5b61024d856101dc565b935061025b602086016101dc565b925060408501359150606085013567ffffffffffffffff81111561027d575f5ffd5b8501601f8101871361028d575f5ffd5b803567ffffffffffffffff8111156102a7576102a7610204565b6040517fffffffffffffffffffffffffffffffffffffffffffffffffffffffffffffffe0603f7fffffffffffffffffffffffffffffffffffffffffffffffffffffffffffffffe0601f8501160116810181811067ffffffffffffffff8211171561031357610313610204565b60405281815282820160200189101561032a575f5ffd5b816020840160208301375f6020838301015280935050505092959194509250565b602081525f82518060208401528060208501604085015e5f6040828501015260407fffffffffffffffffffffffffffffffffffffffffffffffffffffffffffffffe0601f83011684010191505092915050565b5f602082840312156103ae575f5ffd5b505191905056fe60c06040525f5f556001600655348015610017575f5ffd5b50604051613790380380613790833981016040819052610036916105ab565b83836001600160a01b03821661005f5760405163d92e233d60e01b815260040160405180910390fd5b805f0361007f57604051637c946ed760e01b815260040160405180910390fd5b604080516001600160a01b03841660208201529081018290525f9060600160408051601f1981840301815290829052630846d5ff60e31b82526004820184905291505f9081906001600160a01b03861690634236aff89060240160e060405180830381865afa1580156100f4573d5f5f3e3d5ffd5b505050506040513d601f19601f820116820180604052508101906101189190610602565b9650505050509250505f6001600160a01b0316826001600160a01b0316036101535760405163d92e233d60e01b815260040160405180910390fd5b600481600581111561016757610167610690565b146101a75780600581111561017e5761017e610690565b604051633c053f9d60e21b81526004810191909152602481018590526044015b60405180910390fd5b6101b0836102ad565b5050506001600160a01b03831691506101de90505760405163d92e233d60e01b815260040160405180910390fd5b6040516331a9108f60e11b8152600481018490525f906001600160a01b03861690636352211e90602401602060405180830381865afa158015610223573d5f5f3e3d5ffd5b505050506040513d601f19601f8201168201806040525081019061024791906106a4565b90506001600160a01b03811661027357604051630ede975960e01b81526004810185905260240161019e565b600580546001600160a01b0319166001600160a01b03841617905560018390554660a05261029f61030f565b6080525061078c9350505050565b6102b56103d7565b51156103035760405162461bcd60e51b815260206004820152601360248201527f416c726561647920696e697469616c697a656400000000000000000000000000604482015260640161019e565b61030c8161043f565b50565b5f7f8b73c3c69bb8fe3d512ecc4cf759cc79239f7b179b0ffacaa9a75d522b39400f7f493aeac1d921aa02a044029e7fe4be43b1a4e80b40706fa5819e8fbb0d093525604051806040016040528060058152602001640312e312e360dc1b81525060405160200161038091906106c4565b60408051601f1981840301815282825280516020918201209083019490945281019190915260608101919091524660808201523060a082015260c00160405160208183030381529060405280519060200120905090565b606061043a610435604051606b60f91b6020820152602560fa1b60218201526001600160601b03193060601b166022820152600160f81b60368201525f90603701604051602081830303815290604052805190602001205f1c905090565b610503565b905090565b5f61044982610558565b90505f8151602083015ff090506104af604051606b60f91b6020820152602560fa1b60218201526001600160601b03193060601b166022820152600160f81b60368201525f90603701604051602081830303815290604052805190602001205f1c905090565b6001600160a01b0316816001600160a01b0316146104fe5760405162461bcd60e51b815260206004820152600c60248201526b15dc9a5d194819985a5b195960a21b604482015260640161019e565b505050565b6060813b6001811161052457505060408051602081019091525f8152919050565b8061052e8161070d565b9150506040519150601f19601f602083010116820160405280825280600160208401853c50919050565b6060815160016105689190610722565b8260405160200161057a92919061073b565b6040516020818303038152906040529050919050565b80516001600160a01b03811681146105a6575f5ffd5b919050565b5f5f5f5f608085870312156105be575f5ffd5b6105c785610590565b60208601516040870151919550935091506105e460608601610590565b905092959194509250565b805163ffffffff811681146105a6575f5ffd5b5f5f5f5f5f5f5f60e0888a031215610618575f5ffd5b87516001600160601b038116811461062e575f5ffd5b965061063c60208901610590565b955060408801519450610651606089016105ef565b935061065f608089016105ef565b925061066d60a089016105ef565b915060c088015160068110610680575f5ffd5b8091505092959891949750929550565b634e487b7160e01b5f52602160045260245ffd5b5f602082840312156106b4575f5ffd5b6106bd82610590565b9392505050565b602081525f82518060208401528060208501604085015e5f604082850101526040601f19601f83011684010191505092915050565b634e487b7160e01b5f52601160045260245ffd5b5f8161071b5761071b6106f9565b505f190190565b80820180821115610735576107356106f9565b92915050565b606360f81b815260e083901b6001600160e01b03191660018201526880600e6000396000f360b81b60058201525f600e820181905282518060208501600f85015e5f9201600f019182525092915050565b60805160a051612fd56107bb5f395f818161055801526114b601525f818161086701526114eb0152612fd55ff3fe608060405260043610610278575f3560e01c8063a035b1fe1161014b578063d843b7f4116100c6578063f5dcb7bb1161007c578063f698da2511610062578063f698da2514610856578063fc0c546a14610889578063ffa1ad741461089d575f5ffd5b8063f5dcb7bb14610804578063f6171e4414610837575f5ffd5b8063e7d915cf116100ac578063e7d915cf1461078c578063ed24911d146107ab578063f23a6e61146107bf575f5ffd5b8063d843b7f41461071f578063d8a4676f14610760575f5ffd5b8063b0d691fe1161011b578063bdf8631711610101578063bdf86317146106b3578063c7dec3fc146106c8578063cbd6407a146106f4575f5ffd5b8063b0d691fe14610646578063bc197c811461066c575f5ffd5b8063a035b1fe146105ea578063a4f9edbf146105ff578063a669aaf91461061e578063affed0e014610633575f5ffd5b806358ce0909116101f557806391b7f5ed116101ab5780639a8a0592116101915780639a8a0592146105475780639c5e95901461057a5780639ec4a5bf146105cb575f5ffd5b806391b7f5ed146104fd578063982c0db31461051c575f5ffd5b806379412518116101db57806379412518146104685780637af734731461047b5780638fb847ef146104bc575f5ffd5b806358ce09091461040d5780636d70f7ae14610439575f5ffd5b806317d70f7c1161024a5780633a871cdd116102305780633a871cdd146103ba5780634954bbf1146103d95780634ada3e61146103f8575f5ffd5b806317d70f7c1461037b5780631bbbeeb81461038f575f5ffd5b806223de2914610283578062427c54146102a9578063150b7a02146102e75780631626ba7e1461035c575f5ffd5b3661027f57005b5f5ffd5b34801561028e575f5ffd5b506102a761029d3660046124d4565b5050505050505050565b005b3480156102b4575f5ffd5b506102d46102c3366004612583565b60086020525f908152604090205481565b6040519081526020015b60405180910390f35b3480156102f2575f5ffd5b5061032b61030136600461259e565b7f150b7a020000000000000000000000000000000000000000000000000000000095945050505050565b6040517fffffffff0000000000000000000000000000000000000000000000000000000090911681526020016102de565b348015610367575f5ffd5b5061032b6103763660046126e2565b6108e5565b348015610386575f5ffd5b506102d4610a88565b34801561039a575f5ffd5b506102d46103a9366004612583565b60076020525f908152604090205481565b3480156103c5575f5ffd5b506102d46103d4366004612726565b610aac565b3480156103e4575f5ffd5b506102a76103f3366004612775565b610ae8565b348015610403575f5ffd5b506102d460035481565b348015610418575f5ffd5b5061042c6104273660046127d2565b610cdc565b6040516102de91906127f2565b348015610444575f5ffd5b50610458610453366004612583565b610e33565b60405190151581526020016102de565b6102a7610476366004612834565b610f26565b348015610486575f5ffd5b506102d4610495366004612583565b73ffffffffffffffffffffffffffffffffffffffff165f9081526007602052604090205490565b3480156104c7575f5ffd5b506102d46104d6366004612583565b73ffffffffffffffffffffffffffffffffffffffff165f9081526008602052604090205490565b348015610508575f5ffd5b506102a761051736600461288a565b610fa9565b348015610527575f5ffd5b506102d4610536366004612583565b60096020525f908152604090205481565b348015610552575f5ffd5b506102d47f000000000000000000000000000000000000000000000000000000000000000081565b348015610585575f5ffd5b506005546105a69073ffffffffffffffffffffffffffffffffffffffff1681565b60405173ffffffffffffffffffffffffffffffffffffffff90911681526020016102de565b3480156105d6575f5ffd5b506102d46105e5366004612834565b611097565b3480156105f5575f5ffd5b506102d460015481565b34801561060a575f5ffd5b506102a76106193660046128a1565b61114b565b348015610629575f5ffd5b506102d460045481565b34801561063e575f5ffd5b505f546102d4565b348015610651575f5ffd5b50730576a174d229e3cfa37253523e645a78a0c91b576105a6565b348015610677575f5ffd5b5061032b61068636600461291c565b7fbc197c810000000000000000000000000000000000000000000000000000000098975050505050505050565b3480156106be575f5ffd5b506102d460025481565b3480156106d3575f5ffd5b506106e76106e23660046129bf565b6111c7565b6040516102de9190612a7d565b3480156106ff575f5ffd5b506102d461070e366004612583565b600c6020525f908152604090205481565b34801561072a575f5ffd5b506105a661073936600461288a565b600b6020525f908152604090205473ffffffffffffffffffffffffffffffffffffffff1681565b34801561076b575f5ffd5b5061077f61077a36600461288a565b6112b1565b6040516102de9190612abc565b348015610797575f5ffd5b506102a76107a636600461288a565b611387565b3480156107b6575f5ffd5b506102d46114b3565b3480156107ca575f5ffd5b5061032b6107d9366004612afb565b7ff23a6e61000000000000000000000000000000000000000000000000000000009695505050505050565b34801561080f575f5ffd5b506102d47f8b73c3c69bb8fe3d512ecc4cf759cc79239f7b179b0ffacaa9a75d522b39400f81565b348015610842575f5ffd5b506102d46108513660046127d2565b61150d565b348015610861575f5ffd5b506102d47f000000000000000000000000000000000000000000000000000000000000000081565b348015610894575f5ffd5b506105a661152f565b3480156108a8575f5ffd5b506106e76040518060400160405280600581526020017f312e312e3000000000000000000000000000000000000000000000000000000081525081565b5f5f5f5f61090585602081015160408201516060909201515f1a92909190565b9094509250905060ff81165f03610a1b578285830160200161092682610e33565b158015610949575073ffffffffffffffffffffffffffffffffffffffff82163014155b1561097c57507fffffffff000000000000000000000000000000000000000000000000000000009450610a829350505050565b6040517f1626ba7e00000000000000000000000000000000000000000000000000000000815273ffffffffffffffffffffffffffffffffffffffff831690631626ba7e906109d0908b908590600401612b72565b602060405180830381865afa1580156109eb573d5f5f3e3d5ffd5b505050506040513d601f19601f82011682018060405250810190610a0f9190612b8a565b95505050505050610a82565b610a2a6104538783868661154c565b15610a5b57507f1626ba7e000000000000000000000000000000000000000000000000000000009250610a82915050565b507fffffffff00000000000000000000000000000000000000000000000000000000925050505b92915050565b5f5f610a92611568565b806020019051810190610aa59190612bc9565b9392505050565b5f610ab5611637565b610abf84846116b6565b9050610ace6040850185612bf5565b90505f03610adf57610adf8461178a565b610aa582611808565b610af133610e33565b80610b0f575033730576a174d229e3cfa37253523e645a78a0c91b57145b610ba0576040517f08c379a000000000000000000000000000000000000000000000000000000000815260206004820152603e60248201527f4f6e6c792063616c6c61626c6520627920746865206d656368206f706572617460448201527f6f72206f722074686520656e74727920706f696e7420636f6e7472616374000060648201526084015b60405180910390fd5b60016006541115610bdd576040517f8beb9d1600000000000000000000000000000000000000000000000000000000815260040160405180910390fd5b600260065560055473ffffffffffffffffffffffffffffffffffffffff16610c31576040517fd92e233d00000000000000000000000000000000000000000000000000000000815260040160405180910390fd5b5f610c3c858561187c565b805190915015610cd0576005546040517f56d0819e00000000000000000000000000000000000000000000000000000000815273ffffffffffffffffffffffffffffffffffffffff909116906356d0819e90610ca2908890859088908890600401612c56565b5f604051808303815f87803b158015610cb9575f5ffd5b505af1158015610ccb573d5f5f3e3d5ffd5b505050505b50506001600655505050565b6002546060905f849003610cee578093505b80610cf98486612cc4565b1115610d4657610d098385612cc4565b6040517f7ae59685000000000000000000000000000000000000000000000000000000008152600481019190915260248101829052604401610b97565b8315610e2c578367ffffffffffffffff811115610d6557610d6561260c565b604051908082528060200260200182016040528015610d8e578160200160208202803683370190505b505f808052600a6020527f13da86008ba1c6922daee3e07db95305ef49ebced9f5467a0b8613fcc6b343e4549193505b84811015610de1575f828152600a60205260409020600101549150600101610dbe565b505f5b85811015610e295781848281518110610dff57610dff612cd7565b6020908102919091018101919091525f838152600a90915260409020600101549150600101610de4565b50505b5092915050565b5f5f5f610e3e611568565b806020019051810190610e519190612bc9565b6040517f4236aff80000000000000000000000000000000000000000000000000000000081526004810182905291935091505f9073ffffffffffffffffffffffffffffffffffffffff841690634236aff89060240160e060405180830381865afa158015610ec1573d5f5f3e3d5ffd5b505050506040513d601f19601f82011682018060405250810190610ee59190612d17565b50505050509150508473ffffffffffffffffffffffffffffffffffffffff168173ffffffffffffffffffffffffffffffffffffffff16149350505050919050565b60055473ffffffffffffffffffffffffffffffffffffffff163314610f99576005546040517fe56895c000000000000000000000000000000000000000000000000000000000815233600482015273ffffffffffffffffffffffffffffffffffffffff9091166024820152604401610b97565b610fa4838383611a91565b505050565b610fb233610e33565b80610fd0575033730576a174d229e3cfa37253523e645a78a0c91b57145b61105c576040517f08c379a000000000000000000000000000000000000000000000000000000000815260206004820152603e60248201527f4f6e6c792063616c6c61626c6520627920746865206d656368206f706572617460448201527f6f72206f722074686520656e74727920706f696e7420636f6e747261637400006064820152608401610b97565b60018190556040518181527f66cbca4f3c64fecf1dcb9ce094abcf7f68c3450a1d4e3a8e917dd621edb4ebe09060200160405180910390a150565b5f6110a06114b3565b8484846040516020016110b593929190612dae565b6040516020818303038152906040528051906020012060405160200161110d9291907f190100000000000000000000000000000000000000000000000000000000000081526002810192909252602282015260420190565b604080517fffffffffffffffffffffffffffffffffffffffffffffffffffffffffffffffe08184030181529190528051602090910120949350505050565b611153611568565b51156111bb576040517f08c379a000000000000000000000000000000000000000000000000000000000815260206004820152601360248201527f416c726561647920696e697469616c697a6564000000000000000000000000006044820152606401610b97565b6111c481611c39565b50565b60606111d233610e33565b806111f0575033730576a174d229e3cfa37253523e645a78a0c91b57145b61127c576040517f08c379a000000000000000000000000000000000000000000000000000000000815260206004820152603e60248201527f4f6e6c792063616c6c61626c6520627920746865206d656368206f706572617460448201527f6f72206f722074686520656e74727920706f696e7420636f6e747261637400006064820152608401610b97565b5f6112968787878787156112905787611da9565b5a611da9565b92509050806112a757815160208301fd5b5095945050505050565b5f818152600b602052604081205473ffffffffffffffffffffffffffffffffffffffff1615611382575f828152600a60205260408082208151808301928390529160029082845b8154815260200190600101908083116112f85750505050509050805f6002811061132457611324612cd7565b602002015115801561133857506020810151155b801561136d57505f8052600a6020527f13da86008ba1c6922daee3e07db95305ef49ebced9f5467a0b8613fcc6b343e3548314155b1561137b5760029150611380565b600191505b505b919050565b60055473ffffffffffffffffffffffffffffffffffffffff1633146113fa576005546040517fe56895c000000000000000000000000000000000000000000000000000000000815233600482015273ffffffffffffffffffffffffffffffffffffffff9091166024820152604401610b97565b5f818152600b602052604090205473ffffffffffffffffffffffffffffffffffffffff1680611455576040517fd92e233d00000000000000000000000000000000000000000000000000000000815260040160405180910390fd5b61145f8183611eac565b8073ffffffffffffffffffffffffffffffffffffffff167fa36a540c5fea3a5e69d4b1c2247b28a93fd183ef1314af26a8db7b3ae080bcd0836040516114a791815260200190565b60405180910390a25050565b5f7f000000000000000000000000000000000000000000000000000000000000000046146114e8576114e3611fff565b905090565b507f000000000000000000000000000000000000000000000000000000000000000090565b600a602052815f5260405f208160028110611526575f80fd5b01549150829050565b5f5f611539611568565b806020019051810190610a829190612dec565b5f5f5f61155b878787876120fd565b915091506112a7816121e5565b60606114e36116326040517fd60000000000000000000000000000000000000000000000000000000000000060208201527f940000000000000000000000000000000000000000000000000000000000000060218201527fffffffffffffffffffffffffffffffffffffffff0000000000000000000000003060601b1660228201527f010000000000000000000000000000000000000000000000000000000000000060368201525f90603701604051602081830303815290604052805190602001205f1c905090565b612397565b33730576a174d229e3cfa37253523e645a78a0c91b57146116b4576040517f08c379a000000000000000000000000000000000000000000000000000000000815260206004820152601c60248201527f6163636f756e743a206e6f742066726f6d20456e747279506f696e74000000006044820152606401610b97565b565b7f19457468657265756d205369676e6564204d6573736167653a0a3332000000005f908152601c829052603c81207f1626ba7e0000000000000000000000000000000000000000000000000000000061175082611717610140880188612bf5565b8080601f0160208091040260200160405190810160405280939291908181526020018383808284375f920191909152506108e592505050565b7fffffffff000000000000000000000000000000000000000000000000000000001614611781576001915050610a82565b505f9392505050565b5f80546020830135918061179d83612e07565b91905055146111c4576040517f08c379a000000000000000000000000000000000000000000000000000000000815260206004820152600d60248201527f496e76616c6964206e6f6e6365000000000000000000000000000000000000006044820152606401610b97565b80156111c4576040515f9033907fffffffffffffffffffffffffffffffffffffffffffffffffffffffffffffffff90849084818181858888f193505050503d805f8114611870576040519150601f19603f3d011682016040523d82523d5f602084013e611875565b606091505b5050505050565b5f828152600b60205260408082205460055491517ff2e433bf0000000000000000000000000000000000000000000000000000000081526004810186905260609373ffffffffffffffffffffffffffffffffffffffff928316939092169063f2e433bf906024016080604051808303815f875af11580156118ff573d5f5f3e3d5ffd5b505050506040513d601f19601f820116820180604052508101906119239190612e3e565b602081015190915073ffffffffffffffffffffffffffffffffffffffff161561194d575050610a82565b73ffffffffffffffffffffffffffffffffffffffff82166119e35760055473ffffffffffffffffffffffffffffffffffffffff161561198e57806040015191505b73ffffffffffffffffffffffffffffffffffffffff82166119de576040517ffe23980400000000000000000000000000000000000000000000000000000000815260048101869052602401610b97565b6119ed565b6119ed8286611eac565b73ffffffffffffffffffffffffffffffffffffffff82165f908152600860205260408120805486955091611a2083612e07565b909155505060048054905f611a3483612e07565b91905055503373ffffffffffffffffffffffffffffffffffffffff167f0cd979445339c62199996f208428d987b1cea24d18e62b79ec24d94b636e8b708685604051611a81929190612b72565b60405180910390a2505092915050565b611a9c3482846123ec565b73ffffffffffffffffffffffffffffffffffffffff83165f908152600760205260408120805491611acc83612e07565b909155505073ffffffffffffffffffffffffffffffffffffffff83165f908152600960205260408120805491611b0183612e07565b90915550505f818152600b6020908152604080832080547fffffffffffffffffffffffff00000000000000000000000000000000000000001673ffffffffffffffffffffffffffffffffffffffff8816179055600a9091528082207f13da86008ba1c6922daee3e07db95305ef49ebced9f5467a0b8613fcc6b343e480546001830181905590859055808452918320849055600280547f13da86008ba1c6922daee3e07db95305ef49ebced9f5467a0b8613fcc6b343e394929392909190611bc883612e07565b909155505060038054905f611bdc83612e07565b91905055508573ffffffffffffffffffffffffffffffffffffffff167f4bda649efe6b98b0f9c1d5e859c29e20910f45c66dabfe6fad4a4881f7faf9cc8587604051611c29929190612b72565b60405180910390a2505050505050565b5f611c4382612436565b90505f8151602083015ff09050611d156040517fd60000000000000000000000000000000000000000000000000000000000000060208201527f940000000000000000000000000000000000000000000000000000000000000060218201527fffffffffffffffffffffffffffffffffffffffff0000000000000000000000003060601b1660228201527f010000000000000000000000000000000000000000000000000000000000000060368201525f90603701604051602081830303815290604052805190602001205f1c905090565b73ffffffffffffffffffffffffffffffffffffffff168173ffffffffffffffffffffffffffffffffffffffff1614610fa4576040517f08c379a000000000000000000000000000000000000000000000000000000000815260206004820152600c60248201527f5772697465206661696c656400000000000000000000000000000000000000006044820152606401610b97565b5f60606001846001811115611dc057611dc0612a8f565b03611e34578673ffffffffffffffffffffffffffffffffffffffff168386604051611deb9190612ed8565b5f604051808303818686f4925050503d805f8114611e24576040519150601f19603f3d011682016040523d82523d5f602084013e611e29565b606091505b509092509050611ea2565b8673ffffffffffffffffffffffffffffffffffffffff16838787604051611e5b9190612ed8565b5f60405180830381858888f193505050503d805f8114611e96576040519150601f19603f3d011682016040523d82523d5f602084013e611e9b565b606091505b5090925090505b9550959350505050565b73ffffffffffffffffffffffffffffffffffffffff82165f908152600960205260408120805491611edc83612ee3565b909155505060028054905f611ef083612ee3565b90915550505f818152600a60205260408082208151808301928390529160029082845b815481526020019060010190808311611f135750505050509050805f60028110611f3f57611f3f612cd7565b6020020151158015611f5357506020810151155b8015611f8857505f8052600a6020527f13da86008ba1c6922daee3e07db95305ef49ebced9f5467a0b8613fcc6b343e3548214155b15611fc2576040517ffe23980400000000000000000000000000000000000000000000000000000000815260048101839052602401610b97565b6020818101805183515f908152600a9093526040808420600190810192909255935191518352838320919091559281529081208181559091015550565b5f7f8b73c3c69bb8fe3d512ecc4cf759cc79239f7b179b0ffacaa9a75d522b39400f7f493aeac1d921aa02a044029e7fe4be43b1a4e80b40706fa5819e8fbb0d0935256040518060400160405280600581526020017f312e312e300000000000000000000000000000000000000000000000000000008152506040516020016120889190612a7d565b604080517fffffffffffffffffffffffffffffffffffffffffffffffffffffffffffffffe081840301815282825280516020918201209083019490945281019190915260608101919091524660808201523060a082015260c00160405160208183030381529060405280519060200120905090565b5f807f7fffffffffffffffffffffffffffffff5d576e7357a4501ddfe92f46681b20a083111561213257505f905060036121dc565b604080515f8082526020820180845289905260ff881692820192909252606081018690526080810185905260019060a0016020604051602081039080840390855afa158015612183573d5f5f3e3d5ffd5b50506040517fffffffffffffffffffffffffffffffffffffffffffffffffffffffffffffffe0015191505073ffffffffffffffffffffffffffffffffffffffff81166121d6575f600192509250506121dc565b91505f90505b94509492505050565b5f8160048111156121f8576121f8612a8f565b036122005750565b600181600481111561221457612214612a8f565b0361227b576040517f08c379a000000000000000000000000000000000000000000000000000000000815260206004820152601860248201527f45434453413a20696e76616c6964207369676e617475726500000000000000006044820152606401610b97565b600281600481111561228f5761228f612a8f565b036122f6576040517f08c379a000000000000000000000000000000000000000000000000000000000815260206004820152601f60248201527f45434453413a20696e76616c6964207369676e6174757265206c656e677468006044820152606401610b97565b600381600481111561230a5761230a612a8f565b036111c4576040517f08c379a000000000000000000000000000000000000000000000000000000000815260206004820152602260248201527f45434453413a20696e76616c6964207369676e6174757265202773272076616c60448201527f75650000000000000000000000000000000000000000000000000000000000006064820152608401610b97565b6060813b600181116123b857505060408051602081019091525f8152919050565b806123c281612ee3565b9150506040519150601f19601f602083010116820160405280825280600160208401853c50919050565b600154831015610fa4576001546040517fb4897828000000000000000000000000000000000000000000000000000000008152610b97918591600401918252602082015260400190565b6060815160016124469190612cc4565b82604051602001612458929190612f17565b6040516020818303038152906040529050919050565b73ffffffffffffffffffffffffffffffffffffffff811681146111c4575f5ffd5b5f5f83601f84011261249f575f5ffd5b50813567ffffffffffffffff8111156124b6575f5ffd5b6020830191508360208285010111156124cd575f5ffd5b9250929050565b5f5f5f5f5f5f5f5f60c0898b0312156124eb575f5ffd5b88356124f68161246e565b975060208901356125068161246e565b965060408901356125168161246e565b955060608901359450608089013567ffffffffffffffff811115612538575f5ffd5b6125448b828c0161248f565b90955093505060a089013567ffffffffffffffff811115612563575f5ffd5b61256f8b828c0161248f565b999c989b5096995094979396929594505050565b5f60208284031215612593575f5ffd5b8135610aa58161246e565b5f5f5f5f5f608086880312156125b2575f5ffd5b85356125bd8161246e565b945060208601356125cd8161246e565b935060408601359250606086013567ffffffffffffffff8111156125ef575f5ffd5b6125fb8882890161248f565b969995985093965092949392505050565b7f4e487b71000000000000000000000000000000000000000000000000000000005f52604160045260245ffd5b5f82601f830112612648575f5ffd5b813567ffffffffffffffff8111156126625761266261260c565b604051601f82017fffffffffffffffffffffffffffffffffffffffffffffffffffffffffffffffe0908116603f0116810167ffffffffffffffff811182821017156126af576126af61260c565b6040528181528382016020018510156126c6575f5ffd5b816020850160208301375f918101602001919091529392505050565b5f5f604083850312156126f3575f5ffd5b82359150602083013567ffffffffffffffff811115612710575f5ffd5b61271c85828601612639565b9150509250929050565b5f5f5f60608486031215612738575f5ffd5b833567ffffffffffffffff81111561274e575f5ffd5b84016101608187031215612760575f5ffd5b95602085013595506040909401359392505050565b5f5f5f5f60808587031215612788575f5ffd5b84359350602085013567ffffffffffffffff8111156127a5575f5ffd5b6127b187828801612639565b93505060408501356127c28161246e565b9396929550929360600135925050565b5f5f604083850312156127e3575f5ffd5b50508035926020909101359150565b602080825282518282018190525f918401906040840190835b8181101561282957835183526020938401939092019160010161280b565b509095945050505050565b5f5f5f60608486031215612846575f5ffd5b83356128518161246e565b9250602084013567ffffffffffffffff81111561286c575f5ffd5b61287886828701612639565b93969395505050506040919091013590565b5f6020828403121561289a575f5ffd5b5035919050565b5f602082840312156128b1575f5ffd5b813567ffffffffffffffff8111156128c7575f5ffd5b6128d384828501612639565b949350505050565b5f5f83601f8401126128eb575f5ffd5b50813567ffffffffffffffff811115612902575f5ffd5b6020830191508360208260051b85010111156124cd575f5ffd5b5f5f5f5f5f5f5f5f60a0898b031215612933575f5ffd5b883561293e8161246e565b9750602089013561294e8161246e565b9650604089013567ffffffffffffffff811115612969575f5ffd5b6129758b828c016128db565b909750955050606089013567ffffffffffffffff811115612994575f5ffd5b6129a08b828c016128db565b909550935050608089013567ffffffffffffffff811115612563575f5ffd5b5f5f5f5f5f60a086880312156129d3575f5ffd5b85356129de8161246e565b945060208601359350604086013567ffffffffffffffff811115612a00575f5ffd5b612a0c88828901612639565b935050606086013560028110612a20575f5ffd5b949793965091946080013592915050565b5f81518084528060208401602086015e5f6020828601015260207fffffffffffffffffffffffffffffffffffffffffffffffffffffffffffffffe0601f83011685010191505092915050565b602081525f610aa56020830184612a31565b7f4e487b71000000000000000000000000000000000000000000000000000000005f52602160045260245ffd5b6020810160038310612af5577f4e487b71000000000000000000000000000000000000000000000000000000005f52602160045260245ffd5b91905290565b5f5f5f5f5f5f60a08789031215612b10575f5ffd5b8635612b1b8161246e565b95506020870135612b2b8161246e565b94506040870135935060608701359250608087013567ffffffffffffffff811115612b54575f5ffd5b612b6089828a0161248f565b979a9699509497509295939492505050565b828152604060208201525f6128d36040830184612a31565b5f60208284031215612b9a575f5ffd5b81517fffffffff0000000000000000000000000000000000000000000000000000000081168114610aa5575f5ffd5b5f5f60408385031215612bda575f5ffd5b8251612be58161246e565b6020939093015192949293505050565b5f5f83357fffffffffffffffffffffffffffffffffffffffffffffffffffffffffffffffe1843603018112612c28575f5ffd5b83018035915067ffffffffffffffff821115612c42575f5ffd5b6020019150368190038213156124cd575f5ffd5b848152608060208201525f612c6e6080830186612a31565b73ffffffffffffffffffffffffffffffffffffffff949094166040830152506060015292915050565b7f4e487b71000000000000000000000000000000000000000000000000000000005f52601160045260245ffd5b80820180821115610a8257610a82612c97565b7f4e487b71000000000000000000000000000000000000000000000000000000005f52603260045260245ffd5b805163ffffffff81168114611382575f5ffd5b5f5f5f5f5f5f5f60e0888a031215612d2d575f5ffd5b87516bffffffffffffffffffffffff81168114612d48575f5ffd5b6020890151909750612d598161246e565b60408901519096509450612d6f60608901612d04565b9350612d7d60808901612d04565b9250612d8b60a08901612d04565b915060c088015160068110612d9e575f5ffd5b8091505092959891949750929550565b73ffffffffffffffffffffffffffffffffffffffff84168152606060208201525f612ddc6060830185612a31565b9050826040830152949350505050565b5f60208284031215612dfc575f5ffd5b8151610aa58161246e565b5f7fffffffffffffffffffffffffffffffffffffffffffffffffffffffffffffffff8203612e3757612e37612c97565b5060010190565b5f6080828403128015612e4f575f5ffd5b506040516080810167ffffffffffffffff81118282101715612e7357612e7361260c565b6040528251612e818161246e565b81526020830151612e918161246e565b60208201526040830151612ea48161246e565b6040820152612eb560608401612d04565b60608201529392505050565b5f81518060208401855e5f93019283525090919050565b5f610aa58284612ec1565b5f81612ef157612ef1612c97565b507fffffffffffffffffffffffffffffffffffffffffffffffffffffffffffffffff0190565b7f630000000000000000000000000000000000000000000000000000000000000081527fffffffff000000000000000000000000000000000000000000000000000000008360e01b1660018201527f80600e6000396000f3000000000000000000000000000000000000000000000060058201525f600e8201525f6128d3600f830184612ec156fea2646970667358221220745f1a38f2fe83d82c8402a3eb9298ed88a0a021f9cd53260a6519db40953fc864736f6c634300081c0033a2646970667358221220884a98a5a4309369b992b99aea71dad108db7a9e4928c141f6a680b1db04060b64736f6c634300081c0033",
  "linkReferences": {},
  "deployedLinkReferences": {}
}