{
  "_format": "hh-sol-artifact-1",
  "contractName": "MechMarketplace",
  "sourceName": "contracts/MechMarketplace.sol",
  "abi": [
    {
      "inputs": [
        {
          "internalType": "address",
          "name": "_serviceRegistry",
          "type": "address"
        },
        {
          "internalType": "address",
          "name": "_karma",
          "type": "address"
        }
      ],
      "stateMutability": "nonpayable",
      "type": "constructor"
    },
    {
      "inputs": [
        {
          "internalType": "uint256",
          "name": "requestId",
          "type": "uint256"
        }
      ],
      "name": "AlreadyDelivered",
      "type": "error"
    },
    {
      "inputs": [],
      "name": "AlreadyInitialized",
      "type": "error"
    },
    {
      "inputs": [
        {
          "internalType": "uint256",
          "name": "current",
          "type": "uint256"
        },
        {
          "internalType": "uint256",
          "name": "required",
          "type": "uint256"
        }
      ],
      "name": "InsufficientBalance",
      "type": "error"
    },
    {
      "inputs": [
        {
          "internalType": "uint256",
          "name": "amount",
          "type": "uint256"
        }
      ],
      "name": "NoDepositAllowed",
      "type": "error"
    },
    {
      "inputs": [
        {
          "internalType": "uint256",
          "name": "provided",
          "type": "uint256"
        },
        {
          "internalType": "uint256",
          "name": "min",
          "type": "uint256"
        },
        {
          "internalType": "uint256",
          "name": "max",
          "type": "uint256"
        }
      ],
      "name": "OutOfBounds",
      "type": "error"
    },
    {
      "inputs": [
        {
          "internalType": "uint256",
          "name": "provided",
          "type": "uint256"
        },
        {
          "internalType": "uint256",
          "name": "max",
          "type": "uint256"
        }
      ],
      "name": "Overflow",
      "type": "error"
    },
    {
      "inputs": [
        {
          "internalType": "address",
          "name": "sender",
          "type": "address"
        },
        {
          "internalType": "address",
          "name": "owner",
          "type": "address"
        }
      ],
      "name": "OwnerOnly",
      "type": "error"
    },
    {
      "inputs": [
        {
          "internalType": "uint256",
          "name": "expected",
          "type": "uint256"
        },
        {
          "internalType": "uint256",
          "name": "current",
          "type": "uint256"
        }
      ],
      "name": "PriorityMechResponseTimeout",
      "type": "error"
    },
    {
      "inputs": [],
      "name": "ReentrancyGuard",
      "type": "error"
    },
    {
      "inputs": [
        {
          "internalType": "uint256",
          "name": "requestId",
          "type": "uint256"
        }
      ],
      "name": "RequestIdNotFound",
      "type": "error"
    },
    {
      "inputs": [
        {
          "internalType": "address",
          "name": "stakingInstance",
          "type": "address"
        },
        {
          "internalType": "uint256",
          "name": "serviceId",
          "type": "uint256"
        }
      ],
      "name": "ServiceNotStaked",
      "type": "error"
    },
    {
      "inputs": [
        {
          "internalType": "address",
          "name": "token",
          "type": "address"
        },
        {
          "internalType": "address",
          "name": "from",
          "type": "address"
        },
        {
          "internalType": "address",
          "name": "to",
          "type": "address"
        },
        {
          "internalType": "uint256",
          "name": "amount",
          "type": "uint256"
        }
      ],
      "name": "TransferFailed",
      "type": "error"
    },
    {
      "inputs": [
        {
          "internalType": "address",
          "name": "account",
          "type": "address"
        }
      ],
      "name": "UnauthorizedAccount",
      "type": "error"
    },
    {
      "inputs": [
        {
          "internalType": "uint256",
          "name": "numValues1",
          "type": "uint256"
        },
        {
          "internalType": "uint256",
          "name": "numValues2",
          "type": "uint256"
        }
      ],
      "name": "WrongArrayLength",
      "type": "error"
    },
    {
      "inputs": [
        {
          "internalType": "uint256",
          "name": "state",
          "type": "uint256"
        },
        {
          "internalType": "uint256",
          "name": "serviceId",
          "type": "uint256"
        }
      ],
      "name": "WrongServiceState",
      "type": "error"
    },
    {
      "inputs": [],
      "name": "ZeroAddress",
      "type": "error"
    },
    {
      "inputs": [],
      "name": "ZeroValue",
      "type": "error"
    },
    {
      "anonymous": false,
      "inputs": [
        {
          "indexed": true,
          "internalType": "address",
          "name": "mech",
          "type": "address"
        },
        {
          "indexed": true,
          "internalType": "uint256",
          "name": "serviceId",
          "type": "uint256"
        }
      ],
      "name": "CreateMech",
      "type": "event"
    },
    {
      "anonymous": false,
      "inputs": [
        {
          "indexed": true,
          "internalType": "uint256",
          "name": "requestId",
          "type": "uint256"
        },
        {
          "indexed": true,
          "internalType": "address",
          "name": "deliveryMech",
          "type": "address"
        },
        {
          "indexed": false,
          "internalType": "uint256",
          "name": "deliveryRate",
          "type": "uint256"
        },
        {
          "indexed": false,
          "internalType": "uint256",
          "name": "fee",
          "type": "uint256"
        }
      ],
      "name": "DeliveryPaymentProcessed",
      "type": "event"
    },
    {
      "anonymous": false,
      "inputs": [
        {
          "indexed": true,
          "internalType": "address",
          "name": "implementation",
          "type": "address"
        }
      ],
      "name": "ImplementationUpdated",
      "type": "event"
    },
    {
      "anonymous": false,
      "inputs": [
        {
          "indexed": true,
          "internalType": "address",
          "name": "priorityMech",
          "type": "address"
        },
        {
          "indexed": true,
          "internalType": "address",
          "name": "actualMech",
          "type": "address"
        },
        {
          "indexed": true,
          "internalType": "address",
          "name": "requester",
          "type": "address"
        },
        {
          "indexed": false,
          "internalType": "uint256",
          "name": "requestId",
          "type": "uint256"
        },
        {
          "indexed": false,
          "internalType": "bytes",
          "name": "data",
          "type": "bytes"
        }
      ],
      "name": "MarketplaceDeliver",
      "type": "event"
    },
    {
      "anonymous": false,
      "inputs": [
        {
          "indexed": false,
          "internalType": "uint256",
          "name": "fee",
          "type": "uint256"
        },
        {
          "indexed": false,
          "internalType": "uint256",
          "name": "minResponseTimeout",
          "type": "uint256"
        },
        {
          "indexed": false,
          "internalType": "uint256",
          "name": "maxResponseTimeout",
          "type": "uint256"
        }
      ],
      "name": "MarketplaceParamsUpdated",
      "type": "event"
    },
    {
      "anonymous": false,
      "inputs": [
        {
          "indexed": true,
          "internalType": "address",
          "name": "requester",
          "type": "address"
        },
        {
          "indexed": true,
          "internalType": "address",
          "name": "requestedMech",
          "type": "address"
        },
        {
          "indexed": false,
          "internalType": "uint256",
          "name": "requestId",
          "type": "uint256"
        },
        {
          "indexed": false,
          "internalType": "bytes",
          "name": "data",
          "type": "bytes"
        }
      ],
      "name": "MarketplaceRequest",
      "type": "event"
    },
    {
      "anonymous": false,
      "inputs": [
        {
          "indexed": true,
          "internalType": "address",
          "name": "owner",
          "type": "address"
        }
      ],
      "name": "OwnerUpdated",
      "type": "event"
    },
    {
      "anonymous": false,
      "inputs": [
        {
          "indexed": false,
          "internalType": "address[]",
          "name": "mechFactories",
          "type": "address[]"
        },
        {
          "indexed": false,
          "internalType": "bool[]",
          "name": "statuses",
          "type": "bool[]"
        }
      ],
      "name": "SetMechFactoryStatuses",
      "type": "event"
    },
    {
      "anonymous": false,
      "inputs": [
        {
          "indexed": false,
          "internalType": "bytes32[]",
          "name": "paymentTypes",
          "type": "bytes32[]"
        },
        {
          "indexed": false,
          "internalType": "address[]",
          "name": "balanceTrackers",
          "type": "address[]"
        }
      ],
      "name": "SetPaymentTypeBalanceTrackers",
      "type": "event"
    },
    {
      "inputs": [],
      "name": "DOMAIN_SEPARATOR_TYPE_HASH",
      "outputs": [
        {
          "internalType": "bytes32",
          "name": "",
          "type": "bytes32"
        }
      ],
      "stateMutability": "view",
      "type": "function"
    },
    {
      "inputs": [],
      "name": "MECH_MARKETPLACE_PROXY",
      "outputs": [
        {
          "internalType": "bytes32",
          "name": "",
          "type": "bytes32"
        }
      ],
      "stateMutability": "view",
      "type": "function"
    },
    {
      "inputs": [],
      "name": "VERSION",
      "outputs": [
        {
          "internalType": "string",
          "name": "",
          "type": "string"
        }
      ],
      "stateMutability": "view",
      "type": "function"
    },
    {
      "inputs": [],
      "name": "chainId",
      "outputs": [
        {
          "internalType": "uint256",
          "name": "",
          "type": "uint256"
        }
      ],
      "stateMutability": "view",
      "type": "function"
    },
    {
      "inputs": [
        {
          "internalType": "address",
          "name": "newImplementation",
          "type": "address"
        }
      ],
      "name": "changeImplementation",
      "outputs": [],
      "stateMutability": "nonpayable",
      "type": "function"
    },
    {
      "inputs": [
        {
          "internalType": "uint256",
          "name": "newFee",
          "type": "uint256"
        },
        {
          "internalType": "uint256",
          "name": "newMinResponseTimeout",
          "type": "uint256"
        },
        {
          "internalType": "uint256",
          "name": "newMaxResponseTimeout",
          "type": "uint256"
        }
      ],
      "name": "changeMarketplaceParams",
      "outputs": [],
      "stateMutability": "nonpayable",
      "type": "function"
    },
    {
      "inputs": [
        {
          "internalType": "address",
          "name": "newOwner",
          "type": "address"
        }
      ],
      "name": "changeOwner",
      "outputs": [],
      "stateMutability": "nonpayable",
      "type": "function"
    },
    {
      "inputs": [
        {
          "internalType": "address",
          "name": "mech",
          "type": "address"
        }
      ],
      "name": "checkMech",
      "outputs": [
        {
          "internalType": "address",
          "name": "multisig",
          "type": "address"
        }
      ],
      "stateMutability": "view",
      "type": "function"
    },
    {
      "inputs": [
        {
          "internalType": "address",
          "name": "requester",
          "type": "address"
        },
        {
          "internalType": "uint256",
          "name": "requesterServiceId",
          "type": "uint256"
        }
      ],
      "name": "checkRequester",
      "outputs": [],
      "stateMutability": "view",
      "type": "function"
    },
    {
      "inputs": [
        {
          "internalType": "uint256",
          "name": "serviceId",
          "type": "uint256"
        }
      ],
      "name": "checkServiceAndGetMultisig",
      "outputs": [
        {
          "internalType": "address",
          "name": "multisig",
          "type": "address"
        }
      ],
      "stateMutability": "view",
      "type": "function"
    },
    {
      "inputs": [
        {
          "internalType": "uint256",
          "name": "serviceId",
          "type": "uint256"
        },
        {
          "internalType": "address",
          "name": "mechFactory",
          "type": "address"
        },
        {
          "internalType": "bytes",
          "name": "payload",
          "type": "bytes"
        }
      ],
      "name": "create",
      "outputs": [
        {
          "internalType": "address",
          "name": "mech",
          "type": "address"
        }
      ],
      "stateMutability": "nonpayable",
      "type": "function"
    },
    {
      "inputs": [
        {
          "internalType": "uint256",
          "name": "requestId",
          "type": "uint256"
        },
        {
          "internalType": "bytes",
          "name": "requestData",
          "type": "bytes"
        }
      ],
      "name": "deliverMarketplace",
      "outputs": [],
      "stateMutability": "nonpayable",
      "type": "function"
    },
    {
      "inputs": [],
      "name": "domainSeparator",
      "outputs": [
        {
          "internalType": "bytes32",
          "name": "",
          "type": "bytes32"
        }
      ],
      "stateMutability": "view",
      "type": "function"
    },
    {
      "inputs": [],
      "name": "fee",
      "outputs": [
        {
          "internalType": "uint256",
          "name": "",
          "type": "uint256"
        }
      ],
      "stateMutability": "view",
      "type": "function"
    },
    {
      "inputs": [],
      "name": "getDomainSeparator",
      "outputs": [
        {
          "internalType": "bytes32",
          "name": "",
          "type": "bytes32"
        }
      ],
      "stateMutability": "view",
      "type": "function"
    },
    {
      "inputs": [
        {
          "internalType": "address",
          "name": "account",
          "type": "address"
        },
        {
          "internalType": "bytes",
          "name": "data",
          "type": "bytes"
        },
        {
          "internalType": "uint256",
          "name": "nonce",
          "type": "uint256"
        }
      ],
      "name": "getRequestId",
      "outputs": [
        {
          "internalType": "uint256",
          "name": "requestId",
          "type": "uint256"
        }
      ],
      "stateMutability": "view",
      "type": "function"
    },
    {
      "inputs": [
        {
          "internalType": "uint256",
          "name": "requestId",
          "type": "uint256"
        }
      ],
      "name": "getRequestStatus",
      "outputs": [
        {
          "internalType": "enum MechMarketplace.RequestStatus",
          "name": "status",
          "type": "uint8"
        }
      ],
      "stateMutability": "view",
      "type": "function"
    },
    {
      "inputs": [
        {
          "internalType": "uint256",
          "name": "_fee",
          "type": "uint256"
        },
        {
          "internalType": "uint256",
          "name": "_minResponseTimeout",
          "type": "uint256"
        },
        {
          "internalType": "uint256",
          "name": "_maxResponseTimeout",
          "type": "uint256"
        }
      ],
      "name": "initialize",
      "outputs": [],
      "stateMutability": "nonpayable",
      "type": "function"
    },
    {
      "inputs": [],
      "name": "karma",
      "outputs": [
        {
          "internalType": "address",
          "name": "",
          "type": "address"
        }
      ],
      "stateMutability": "view",
      "type": "function"
    },
    {
      "inputs": [
        {
          "internalType": "address",
          "name": "",
          "type": "address"
        }
      ],
      "name": "mapAgentMechFactories",
      "outputs": [
        {
          "internalType": "address",
          "name": "",
          "type": "address"
        }
      ],
      "stateMutability": "view",
      "type": "function"
    },
    {
      "inputs": [
        {
          "internalType": "address",
          "name": "",
          "type": "address"
        }
      ],
      "name": "mapDeliveryCounts",
      "outputs": [
        {
          "internalType": "uint256",
          "name": "",
          "type": "uint256"
        }
      ],
      "stateMutability": "view",
      "type": "function"
    },
    {
      "inputs": [
        {
          "internalType": "address",
          "name": "",
          "type": "address"
        }
      ],
      "name": "mapMechDeliveryCounts",
      "outputs": [
        {
          "internalType": "uint256",
          "name": "",
          "type": "uint256"
        }
      ],
      "stateMutability": "view",
      "type": "function"
    },
    {
      "inputs": [
        {
          "internalType": "address",
          "name": "",
          "type": "address"
        }
      ],
      "name": "mapMechFactories",
      "outputs": [
        {
          "internalType": "bool",
          "name": "",
          "type": "bool"
        }
      ],
      "stateMutability": "view",
      "type": "function"
    },
    {
      "inputs": [
        {
          "internalType": "address",
          "name": "",
          "type": "address"
        }
      ],
      "name": "mapMechServiceDeliveryCounts",
      "outputs": [
        {
          "internalType": "uint256",
          "name": "",
          "type": "uint256"
        }
      ],
      "stateMutability": "view",
      "type": "function"
    },
    {
      "inputs": [
        {
          "internalType": "address",
          "name": "",
          "type": "address"
        }
      ],
      "name": "mapNonces",
      "outputs": [
        {
          "internalType": "uint256",
          "name": "",
          "type": "uint256"
        }
      ],
      "stateMutability": "view",
      "type": "function"
    },
    {
      "inputs": [
        {
          "internalType": "bytes32",
          "name": "",
          "type": "bytes32"
        }
      ],
      "name": "mapPaymentTypeBalanceTrackers",
      "outputs": [
        {
          "internalType": "address",
          "name": "",
          "type": "address"
        }
      ],
      "stateMutability": "view",
      "type": "function"
    },
    {
      "inputs": [
        {
          "internalType": "address",
          "name": "",
          "type": "address"
        }
      ],
      "name": "mapRequestCounts",
      "outputs": [
        {
          "internalType": "uint256",
          "name": "",
          "type": "uint256"
        }
      ],
      "stateMutability": "view",
      "type": "function"
    },
    {
      "inputs": [
        {
          "internalType": "uint256",
          "name": "",
          "type": "uint256"
        }
      ],
      "name": "mapRequestIdDeliveries",
      "outputs": [
        {
          "internalType": "address",
          "name": "priorityMech",
          "type": "address"
        },
        {
          "internalType": "address",
          "name": "deliveryMech",
          "type": "address"
        },
        {
          "internalType": "address",
          "name": "requester",
          "type": "address"
        },
        {
          "internalType": "uint256",
          "name": "responseTimeout",
          "type": "uint256"
        },
        {
          "internalType": "uint256",
          "name": "deliveryRate",
          "type": "uint256"
        }
      ],
      "stateMutability": "view",
      "type": "function"
    },
    {
      "inputs": [
        {
          "internalType": "uint256",
          "name": "",
          "type": "uint256"
        }
      ],
      "name": "mapServiceIdMech",
      "outputs": [
        {
          "internalType": "address",
          "name": "",
          "type": "address"
        }
      ],
      "stateMutability": "view",
      "type": "function"
    },
    {
      "inputs": [],
      "name": "maxResponseTimeout",
      "outputs": [
        {
          "internalType": "uint256",
          "name": "",
          "type": "uint256"
        }
      ],
      "stateMutability": "view",
      "type": "function"
    },
    {
      "inputs": [],
      "name": "minResponseTimeout",
      "outputs": [
        {
          "internalType": "uint256",
          "name": "",
          "type": "uint256"
        }
      ],
      "stateMutability": "view",
      "type": "function"
    },
    {
      "inputs": [],
      "name": "numMechs",
      "outputs": [
        {
          "internalType": "uint256",
          "name": "",
          "type": "uint256"
        }
      ],
      "stateMutability": "view",
      "type": "function"
    },
    {
      "inputs": [],
      "name": "numTotalRequests",
      "outputs": [
        {
          "internalType": "uint256",
          "name": "",
          "type": "uint256"
        }
      ],
      "stateMutability": "view",
      "type": "function"
    },
    {
      "inputs": [],
      "name": "numUndeliveredRequests",
      "outputs": [
        {
          "internalType": "uint256",
          "name": "",
          "type": "uint256"
        }
      ],
      "stateMutability": "view",
      "type": "function"
    },
    {
      "inputs": [],
      "name": "owner",
      "outputs": [
        {
          "internalType": "address",
          "name": "",
          "type": "address"
        }
      ],
      "stateMutability": "view",
      "type": "function"
    },
    {
      "inputs": [
        {
          "internalType": "bytes",
          "name": "data",
          "type": "bytes"
        },
        {
          "internalType": "uint256",
          "name": "priorityMechServiceId",
          "type": "uint256"
        },
        {
          "internalType": "uint256",
          "name": "requesterServiceId",
          "type": "uint256"
        },
        {
          "internalType": "uint256",
          "name": "responseTimeout",
          "type": "uint256"
        },
        {
          "internalType": "bytes",
          "name": "paymentData",
          "type": "bytes"
        }
      ],
      "name": "request",
      "outputs": [
        {
          "internalType": "uint256",
          "name": "requestId",
          "type": "uint256"
        }
      ],
      "stateMutability": "payable",
      "type": "function"
    },
    {
      "inputs": [],
      "name": "serviceRegistry",
      "outputs": [
        {
          "internalType": "address",
          "name": "",
          "type": "address"
        }
      ],
      "stateMutability": "view",
      "type": "function"
    },
    {
      "inputs": [
        {
          "internalType": "address[]",
          "name": "mechFactories",
          "type": "address[]"
        },
        {
          "internalType": "bool[]",
          "name": "statuses",
          "type": "bool[]"
        }
      ],
      "name": "setMechFactoryStatuses",
      "outputs": [],
      "stateMutability": "nonpayable",
      "type": "function"
    },
    {
      "inputs": [
        {
          "internalType": "bytes32[]",
          "name": "paymentTypes",
          "type": "bytes32[]"
        },
        {
          "internalType": "address[]",
          "name": "balanceTrackers",
          "type": "address[]"
        }
      ],
      "name": "setPaymentTypeBalanceTrackers",
      "outputs": [],
      "stateMutability": "nonpayable",
      "type": "function"
    }
  ],
  "bytecode": "0x6101006040526001600655348015610015575f5ffd5b5060405161327e38038061327e8339810160408190526100349161017c565b6001600160a01b038216158061005157506001600160a01b038116155b1561006f5760405163d92e233d60e01b815260040160405180910390fd5b6001600160a01b0380831660e052811660c0524660a05261008e610099565b608052506101e29050565b5f7f8b73c3c69bb8fe3d512ecc4cf759cc79239f7b179b0ffacaa9a75d522b39400f7ff376b6313a0837eb351511248cfe7dcc1cd26c49b8e0a47e1eb369dd62c425db604051806040016040528060058152602001640312e312e360dc1b81525060405160200161010a91906101ad565b60408051601f1981840301815282825280516020918201209083019490945281019190915260608101919091524660808201523060a082015260c00160405160208183030381529060405280519060200120905090565b80516001600160a01b0381168114610177575f5ffd5b919050565b5f5f6040838503121561018d575f5ffd5b61019683610161565b91506101a460208401610161565b90509250929050565b602081525f82518060208401528060208501604085015e5f604082850101526040601f19601f83011684010191505092915050565b60805160a05160c05160e0516130386102465f395f818161076e01528181610f1f01526110e701525f8181610580015281816116f601528181611a270152611c4101525f81816105fe015261235901525f81816108cf015261238e01526130385ff3fe608060405260043610610290575f3560e01c806380d8591111610165578063d64bf8b0116100c6578063e8eca22d1161007c578063f5dcb7bb11610062578063f5dcb7bb1461088b578063f698da25146108be578063ffa1ad74146108f1575f5ffd5b8063e8eca22d14610844578063ed24911d14610877575f5ffd5b8063ddca3f43116100ac578063ddca3f4314610806578063ded812861461081a578063e0cb19e81461082f575f5ffd5b8063d64bf8b0146107bb578063d8a4676f146107da575f5ffd5b8063bdf863171161011b578063cb261bec11610101578063cb261bec146106b4578063cbcf252a1461075d578063cbd6407a14610790575f5ffd5b8063bdf863171461065e578063c69f6f9f14610673575f5ffd5b80639a8a05921161014b5780639a8a0592146105ed5780639ec4a5bf14610620578063a6f9dae11461063f575f5ffd5b806380d85911146105a25780638da5cb5b146105c1575f5ffd5b806343be96431161020f57806355e1bfbb116101c55780635d24cd29116101ab5780635d24cd291461053d57806363a0c91c1461055057806374a8569b1461056f575f5ffd5b806355e1bfbb146104ff57806357c0762d1461051e575f5ffd5b806348fe2edf116101f557806348fe2edf1461048a5780634ada3e61146104a95780634eb07dd3146104be575f5ffd5b806343be96431461044057806346fbcbb21461046b575f5ffd5b8063176b8b01116102645780631bbbeeb81161024a5780631bbbeeb8146103905780632394290e146103bb5780632685937b14610421575f5ffd5b8063176b8b011461034657806317a68dd814610371575f5ffd5b8062427c5414610294578063087f08d4146102d25780630f41196a146102f35780631399991414610308575b5f5ffd5b34801561029f575f5ffd5b506102bf6102ae366004612600565b60096020525f908152604090205481565b6040519081526020015b60405180910390f35b3480156102dd575f5ffd5b506102f16102ec366004612741565b610946565b005b3480156102fe575f5ffd5b506102bf60015481565b348015610313575f5ffd5b50610336610322366004612600565b600d6020525f908152604090205460ff1681565b60405190151581526020016102c9565b348015610351575f5ffd5b506102bf610360366004612600565b600a6020525f908152604090205481565b34801561037c575f5ffd5b506102f161038b366004612600565b610b60565b34801561039b575f5ffd5b506102bf6103aa366004612600565b60086020525f908152604090205481565b3480156103c6575f5ffd5b506103fc6103d5366004612808565b60116020525f908152604090205473ffffffffffffffffffffffffffffffffffffffff1681565b60405173ffffffffffffffffffffffffffffffffffffffff90911681526020016102c9565b34801561042c575f5ffd5b506103fc61043b366004612600565b610c87565b34801561044b575f5ffd5b506102bf61045a366004612600565b600b6020525f908152604090205481565b348015610476575f5ffd5b506103fc6104853660046128a9565b610e5f565b348015610495575f5ffd5b506103fc6104a4366004612808565b61109f565b3480156104b4575f5ffd5b506102bf60045481565b3480156104c9575f5ffd5b506103fc6104d8366004612808565b600f6020525f908152604090205473ffffffffffffffffffffffffffffffffffffffff1681565b34801561050a575f5ffd5b506102f16105193660046128fe565b6111ca565b348015610529575f5ffd5b506102f1610538366004612928565b611267565b6102bf61054b366004612951565b61132b565b34801561055b575f5ffd5b506102f161056a3660046129d1565b611892565b34801561057a575f5ffd5b506103fc7f000000000000000000000000000000000000000000000000000000000000000081565b3480156105ad575f5ffd5b506102f16105bc366004612928565b611e37565b3480156105cc575f5ffd5b506007546103fc9073ffffffffffffffffffffffffffffffffffffffff1681565b3480156105f8575f5ffd5b506102bf7f000000000000000000000000000000000000000000000000000000000000000081565b34801561062b575f5ffd5b506102bf61063a366004612a15565b611ec1565b34801561064a575f5ffd5b506102f1610659366004612600565b611f77565b348015610669575f5ffd5b506102bf60035481565b34801561067e575f5ffd5b506103fc61068d366004612600565b600e6020525f908152604090205473ffffffffffffffffffffffffffffffffffffffff1681565b3480156106bf575f5ffd5b506107176106ce366004612808565b600c6020525f90815260409020805460018201546002830154600384015460049094015473ffffffffffffffffffffffffffffffffffffffff9384169492841693909116919085565b6040805173ffffffffffffffffffffffffffffffffffffffff9687168152948616602086015292909416918301919091526060820152608081019190915260a0016102c9565b348015610768575f5ffd5b506103fc7f000000000000000000000000000000000000000000000000000000000000000081565b34801561079b575f5ffd5b506102bf6107aa366004612600565b60106020525f908152604090205481565b3480156107c6575f5ffd5b506102f16107d5366004612a6b565b6120a5565b3480156107e5575f5ffd5b506107f96107f4366004612808565b6122a7565b6040516102c99190612b4a565b348015610811575f5ffd5b506102bf5f5481565b348015610825575f5ffd5b506102bf60025481565b34801561083a575f5ffd5b506102bf60055481565b34801561084f575f5ffd5b506102bf7fe6194b93a7bff0a54130ed8cd277223408a77f3e48bb5104a9db96d334f962ca81565b348015610882575f5ffd5b506102bf612356565b348015610896575f5ffd5b506102bf7f8b73c3c69bb8fe3d512ecc4cf759cc79239f7b179b0ffacaa9a75d522b39400f81565b3480156108c9575f5ffd5b506102bf7f000000000000000000000000000000000000000000000000000000000000000081565b3480156108fc575f5ffd5b506109396040518060400160405280600581526020017f312e312e3000000000000000000000000000000000000000000000000000000081525081565b6040516102c99190612bd5565b60075473ffffffffffffffffffffffffffffffffffffffff1633146109be576007546040517fa43d6ada00000000000000000000000000000000000000000000000000000000815233600482015273ffffffffffffffffffffffffffffffffffffffff90911660248201526044015b60405180910390fd5b8051825114610a0657815181516040517f8151c110000000000000000000000000000000000000000000000000000000008152600481019290925260248201526044016109b5565b5f5b8251811015610b22575f73ffffffffffffffffffffffffffffffffffffffff16838281518110610a3a57610a3a612be7565b602002602001015173ffffffffffffffffffffffffffffffffffffffff1603610a8f576040517fd92e233d00000000000000000000000000000000000000000000000000000000815260040160405180910390fd5b818181518110610aa157610aa1612be7565b6020026020010151600d5f858481518110610abe57610abe612be7565b60209081029190910181015173ffffffffffffffffffffffffffffffffffffffff1682528101919091526040015f2080547fffffffffffffffffffffffffffffffffffffffffffffffffffffffffffffff0016911515919091179055600101610a08565b507f8cc6be981009d13170c616af494b7d671ed2d84b7e6891e4c8f21fe065c00dfc8282604051610b54929190612c64565b60405180910390a15050565b60075473ffffffffffffffffffffffffffffffffffffffff163314610bd3576007546040517fa43d6ada00000000000000000000000000000000000000000000000000000000815233600482015273ffffffffffffffffffffffffffffffffffffffff90911660248201526044016109b5565b73ffffffffffffffffffffffffffffffffffffffff8116610c20576040517fd92e233d00000000000000000000000000000000000000000000000000000000815260040160405180910390fd5b7fe6194b93a7bff0a54130ed8cd277223408a77f3e48bb5104a9db96d334f962ca81905560405173ffffffffffffffffffffffffffffffffffffffff8216907f310ba5f1d2ed074b51e2eccd052a47ae9ab7c6b800d1fca3db3999d6a592ca03905f90a250565b5f5f8273ffffffffffffffffffffffffffffffffffffffff166317d70f7c6040518163ffffffff1660e01b8152600401602060405180830381865afa158015610cd2573d5f5f3e3d5ffd5b505050506040513d601f19601f82011682018060405250810190610cf69190612cbe565b5f8181526011602052604090205490915073ffffffffffffffffffffffffffffffffffffffff848116911614610d70576040517f32b2baa300000000000000000000000000000000000000000000000000000000815273ffffffffffffffffffffffffffffffffffffffff841660048201526024016109b5565b610d798161109f565b6040517f6d70f7ae00000000000000000000000000000000000000000000000000000000815273ffffffffffffffffffffffffffffffffffffffff808316600483015291935090841690636d70f7ae90602401602060405180830381865afa158015610de7573d5f5f3e3d5ffd5b505050506040513d601f19601f82011682018060405250810190610e0b9190612cd5565b610e59576040517f32b2baa300000000000000000000000000000000000000000000000000000000815273ffffffffffffffffffffffffffffffffffffffff841660048201526024016109b5565b50919050565b73ffffffffffffffffffffffffffffffffffffffff82165f908152600d602052604081205460ff16610ed5576040517f32b2baa300000000000000000000000000000000000000000000000000000000815273ffffffffffffffffffffffffffffffffffffffff841660048201526024016109b5565b6040517f0f7fb56d00000000000000000000000000000000000000000000000000000000815273ffffffffffffffffffffffffffffffffffffffff841690630f7fb56d90610f4b907f00000000000000000000000000000000000000000000000000000000000000009088908790600401612cf0565b6020604051808303815f875af1158015610f67573d5f5f3e3d5ffd5b505050506040513d601f19601f82011682018060405250810190610f8b9190612d2d565b905073ffffffffffffffffffffffffffffffffffffffff8116610fda576040517fd92e233d00000000000000000000000000000000000000000000000000000000815260040160405180910390fd5b73ffffffffffffffffffffffffffffffffffffffff8082165f818152600e6020908152604080832080549589167fffffffffffffffffffffffff0000000000000000000000000000000000000000968716179055888352601190915281208054909316909117909155600580549161105183612d75565b9091555050604051849073ffffffffffffffffffffffffffffffffffffffff8316907f0dab9459b2f129b692750bed5cc716b07a2fb19ba9fe0a0dc378428a62040367905f90a39392505050565b6040517f4236aff8000000000000000000000000000000000000000000000000000000008152600481018290525f90819073ffffffffffffffffffffffffffffffffffffffff7f00000000000000000000000000000000000000000000000000000000000000001690634236aff89060240160e060405180830381865afa15801561112c573d5f5f3e3d5ffd5b505050506040513d601f19601f820116820180604052508101906111509190612dc4565b949750939550600494506111649350505050565b81600581111561117657611176612b1d565b14610e595780600581111561118d5761118d612b1d565b6040517ff014fe740000000000000000000000000000000000000000000000000000000081526004810191909152602481018490526044016109b5565b8015611263575f6111da8261109f565b90508273ffffffffffffffffffffffffffffffffffffffff168173ffffffffffffffffffffffffffffffffffffffff1614611261576040517fa43d6ada00000000000000000000000000000000000000000000000000000000815273ffffffffffffffffffffffffffffffffffffffff8085166004830152821660248201526044016109b5565b505b5050565b60075473ffffffffffffffffffffffffffffffffffffffff1633146112da576007546040517fa43d6ada00000000000000000000000000000000000000000000000000000000815233600482015273ffffffffffffffffffffffffffffffffffffffff90911660248201526044016109b5565b6112e58383836123b0565b60408051848152602081018490529081018290527f64d0972bd5d0c2828d80911b61084d86d61214c3081656ca3a720047a88320359060600160405180910390a1505050565b5f60016006541115611369576040517f8beb9d1600000000000000000000000000000000000000000000000000000000815260040160405180910390fd5b600260065560015483108061137f575060025483115b156113cc576001546002546040517feb373cfe00000000000000000000000000000000000000000000000000000000815260048101869052602481019290925260448201526064016109b5565b63ffffffff6113db4285612e5b565b111561142b576113eb4284612e5b565b6040517f7ae59685000000000000000000000000000000000000000000000000000000008152600481019190915263ffffffff60248201526044016109b5565b85515f03611465576040517f7c946ed700000000000000000000000000000000000000000000000000000000815260040160405180910390fd5b5f8581526011602052604090205473ffffffffffffffffffffffffffffffffffffffff16806114c0576040517fd92e233d00000000000000000000000000000000000000000000000000000000815260040160405180910390fd5b6114ca33866111ca565b335f818152601060205260409020546114e591908990611ec1565b91505f8173ffffffffffffffffffffffffffffffffffffffff16632763b8da6040518163ffffffff1660e01b81526004016020604051808303815f875af1158015611532573d5f5f3e3d5ffd5b505050506040513d601f19601f820116820180604052508101906115569190612cbe565b5f818152600f6020526040908190205490517f36b5571200000000000000000000000000000000000000000000000000000000815291925073ffffffffffffffffffffffffffffffffffffffff169081906336b557129034906115c190879033908b90600401612e74565b5f604051808303818588803b1580156115d8575f5ffd5b505af11580156115ea573d5f5f3e3d5ffd5b5050335f908152601060205260408120805494509250905061160b83612d75565b90915550505f848152600c6020526040902080547fffffffffffffffffffffffff00000000000000000000000000000000000000001673ffffffffffffffffffffffffffffffffffffffff85161781556116654288612e5b565b60038201556002810180547fffffffffffffffffffffffff00000000000000000000000000000000000000001633908117909155346004808401919091556040517f55e7d0440000000000000000000000000000000000000000000000000000000081529081019190915273ffffffffffffffffffffffffffffffffffffffff8581166024830152600160448301527f000000000000000000000000000000000000000000000000000000000000000016906355e7d044906064015f604051808303815f87803b158015611737575f5ffd5b505af1158015611749573d5f5f3e3d5ffd5b5050335f90815260086020526040812080549350915061176883612d75565b909155505060038054905f61177c83612d75565b909155505060048054905f61179083612d75565b90915550506040517f7941251800000000000000000000000000000000000000000000000000000000815273ffffffffffffffffffffffffffffffffffffffff8516906379412518906117eb9033908e908a90600401612ebe565b5f604051808303815f87803b158015611802575f5ffd5b505af1158015611814573d5f5f3e3d5ffd5b505050508373ffffffffffffffffffffffffffffffffffffffff163373ffffffffffffffffffffffffffffffffffffffff167f4827c9fc8074fe94dd4939d4228739ff43d7072a6504a6f413ffa4967c120175878d604051611877929190612efc565b60405180910390a35050600160065550909695505050505050565b600160065411156118cf576040517f8beb9d1600000000000000000000000000000000000000000000000000000000815260040160405180910390fd5b60026006555f6118de33610c87565b5f848152600c6020526040902080549192509073ffffffffffffffffffffffffffffffffffffffff168061193e576040517fd92e233d00000000000000000000000000000000000000000000000000000000815260040160405180910390fd5b600182015473ffffffffffffffffffffffffffffffffffffffff1615611993576040517f5b7e8301000000000000000000000000000000000000000000000000000000008152600481018690526024016109b5565b73ffffffffffffffffffffffffffffffffffffffff81163314611b3f578160030154421115611afe576040517f4225d37a00000000000000000000000000000000000000000000000000000000815273ffffffffffffffffffffffffffffffffffffffff82811660048301527fffffffffffffffffffffffffffffffffffffffffffffffffffffffffffffffff60248301527f00000000000000000000000000000000000000000000000000000000000000001690634225d37a906044015f604051808303815f87803b158015611a68575f5ffd5b505af1158015611a7a573d5f5f3e3d5ffd5b50506040517fe7d915cf0000000000000000000000000000000000000000000000000000000081526004810188905273ffffffffffffffffffffffffffffffffffffffff8416925063e7d915cf91506024015f604051808303815f87803b158015611ae3575f5ffd5b505af1158015611af5573d5f5f3e3d5ffd5b50505050611b3f565b60038201546040517f177d0c7900000000000000000000000000000000000000000000000000000000815260048101919091524260248201526044016109b5565b6001820180547fffffffffffffffffffffffff0000000000000000000000000000000000000000163317905560038054905f611b7a83612f1c565b9091555050600282015473ffffffffffffffffffffffffffffffffffffffff165f908152600960205260408120805491611bb383612d75565b9091555050335f908152600a60205260408120805491611bd283612d75565b909155505073ffffffffffffffffffffffffffffffffffffffff83165f908152600b60205260408120805491611c0783612d75565b90915550506040517f4225d37a000000000000000000000000000000000000000000000000000000008152336004820152600160248201527f000000000000000000000000000000000000000000000000000000000000000073ffffffffffffffffffffffffffffffffffffffff1690634225d37a906044015f604051808303815f87803b158015611c97575f5ffd5b505af1158015611ca9573d5f5f3e3d5ffd5b505050505f8173ffffffffffffffffffffffffffffffffffffffff16632763b8da6040518163ffffffff1660e01b81526004016020604051808303815f875af1158015611cf8573d5f5f3e3d5ffd5b505050506040513d601f19601f82011682018060405250810190611d1c9190612cbe565b5f818152600f602052604080822054600287015460048089015484517ffe71c424000000000000000000000000000000000000000000000000000000008152339281019290925273ffffffffffffffffffffffffffffffffffffffff9283166024830152604482018d9052606482015292519495501692839263fe71c424926084808201939182900301818387803b158015611db6575f5ffd5b505af1158015611dc8573d5f5f3e3d5ffd5b505050600285015460405173ffffffffffffffffffffffffffffffffffffffff918216925033918616907fc0ecbc77097bb637f0b6fa34f169d87906113c1c45a0227113d36cdbae936fc490611e21908c908c90612efc565b60405180910390a4505060016006555050505050565b60075473ffffffffffffffffffffffffffffffffffffffff1615611e87576040517f0dc149f000000000000000000000000000000000000000000000000000000000815260040160405180910390fd5b611e928383836123b0565b5050600780547fffffffffffffffffffffffff0000000000000000000000000000000000000000163317905550565b5f611eca612356565b30858585604051602001611ee19493929190612f50565b60405160208183030381529060405280519060200120604051602001611f399291907f190100000000000000000000000000000000000000000000000000000000000081526002810192909252602282015260420190565b604080517fffffffffffffffffffffffffffffffffffffffffffffffffffffffffffffffe08184030181529190528051602090910120949350505050565b60075473ffffffffffffffffffffffffffffffffffffffff163314611fea576007546040517fa43d6ada00000000000000000000000000000000000000000000000000000000815233600482015273ffffffffffffffffffffffffffffffffffffffff90911660248201526044016109b5565b73ffffffffffffffffffffffffffffffffffffffff8116612037576040517fd92e233d00000000000000000000000000000000000000000000000000000000815260040160405180910390fd5b600780547fffffffffffffffffffffffff00000000000000000000000000000000000000001673ffffffffffffffffffffffffffffffffffffffff83169081179091556040517f4ffd725fc4a22075e9ec71c59edf9c38cdeb588a91b24fc5b61388c5be41282b905f90a250565b60075473ffffffffffffffffffffffffffffffffffffffff163314612118576007546040517fa43d6ada00000000000000000000000000000000000000000000000000000000815233600482015273ffffffffffffffffffffffffffffffffffffffff90911660248201526044016109b5565b805182511461216057815181516040517f8151c110000000000000000000000000000000000000000000000000000000008152600481019290925260248201526044016109b5565b5f5b8251811015612275575f73ffffffffffffffffffffffffffffffffffffffff1682828151811061219457612194612be7565b602002602001015173ffffffffffffffffffffffffffffffffffffffff16036121e9576040517fd92e233d00000000000000000000000000000000000000000000000000000000815260040160405180910390fd5b8181815181106121fb576121fb612be7565b6020026020010151600f5f85848151811061221857612218612be7565b602002602001015181526020019081526020015f205f6101000a81548173ffffffffffffffffffffffffffffffffffffffff021916908373ffffffffffffffffffffffffffffffffffffffff160217905550806001019050612162565b507fa9759667b17e564f26a0d91ce1c5e4a1dc3910aee992dc3f5f4da0a59d48f3cb8282604051610b54929190612fab565b5f818152600c60209081526040808320815160a081018352815473ffffffffffffffffffffffffffffffffffffffff908116808352600184015482169583019590955260028301541692810192909252600381015460608301526004015460808201529015610e5957602081015173ffffffffffffffffffffffffffffffffffffffff1661234d5780606001514211156123445760029150610e59565b60019150610e59565b50600392915050565b5f7f0000000000000000000000000000000000000000000000000000000000000000461461238b576123866124de565b905090565b507f000000000000000000000000000000000000000000000000000000000000000090565b8215806123bb575081155b806123c4575080155b156123fb576040517f7c946ed700000000000000000000000000000000000000000000000000000000815260040160405180910390fd5b612710831115612442576040517f7ae596850000000000000000000000000000000000000000000000000000000081526004810184905261271060248201526044016109b5565b80821115612486576040517f7ae5968500000000000000000000000000000000000000000000000000000000815260048101839052602481018290526044016109b5565b63ffffffff8111156124d1576040517f7ae596850000000000000000000000000000000000000000000000000000000081526004810182905263ffffffff60248201526044016109b5565b5f92909255600155600255565b5f7f8b73c3c69bb8fe3d512ecc4cf759cc79239f7b179b0ffacaa9a75d522b39400f7ff376b6313a0837eb351511248cfe7dcc1cd26c49b8e0a47e1eb369dd62c425db6040518060400160405280600581526020017f312e312e300000000000000000000000000000000000000000000000000000008152506040516020016125679190612bd5565b604080517fffffffffffffffffffffffffffffffffffffffffffffffffffffffffffffffe081840301815282825280516020918201209083019490945281019190915260608101919091524660808201523060a082015260c00160405160208183030381529060405280519060200120905090565b73ffffffffffffffffffffffffffffffffffffffff811681146125fd575f5ffd5b50565b5f60208284031215612610575f5ffd5b813561261b816125dc565b9392505050565b7f4e487b71000000000000000000000000000000000000000000000000000000005f52604160045260245ffd5b604051601f82017fffffffffffffffffffffffffffffffffffffffffffffffffffffffffffffffe016810167ffffffffffffffff8111828210171561269657612696612622565b604052919050565b5f67ffffffffffffffff8211156126b7576126b7612622565b5060051b60200190565b5f82601f8301126126d0575f5ffd5b81356126e36126de8261269e565b61264f565b8082825260208201915060208360051b860101925085831115612704575f5ffd5b602085015b8381101561272a57803561271c816125dc565b835260209283019201612709565b5095945050505050565b80151581146125fd575f5ffd5b5f5f60408385031215612752575f5ffd5b823567ffffffffffffffff811115612768575f5ffd5b612774858286016126c1565b925050602083013567ffffffffffffffff811115612790575f5ffd5b8301601f810185136127a0575f5ffd5b80356127ae6126de8261269e565b8082825260208201915060208360051b8501019250878311156127cf575f5ffd5b6020840193505b828410156127fa5783356127e981612734565b8252602093840193909101906127d6565b809450505050509250929050565b5f60208284031215612818575f5ffd5b5035919050565b5f82601f83011261282e575f5ffd5b813567ffffffffffffffff81111561284857612848612622565b61287960207fffffffffffffffffffffffffffffffffffffffffffffffffffffffffffffffe0601f8401160161264f565b81815284602083860101111561288d575f5ffd5b816020850160208301375f918101602001919091529392505050565b5f5f5f606084860312156128bb575f5ffd5b8335925060208401356128cd816125dc565b9150604084013567ffffffffffffffff8111156128e8575f5ffd5b6128f48682870161281f565b9150509250925092565b5f5f6040838503121561290f575f5ffd5b823561291a816125dc565b946020939093013593505050565b5f5f5f6060848603121561293a575f5ffd5b505081359360208301359350604090920135919050565b5f5f5f5f5f60a08688031215612965575f5ffd5b853567ffffffffffffffff81111561297b575f5ffd5b6129878882890161281f565b955050602086013593506040860135925060608601359150608086013567ffffffffffffffff8111156129b8575f5ffd5b6129c48882890161281f565b9150509295509295909350565b5f5f604083850312156129e2575f5ffd5b82359150602083013567ffffffffffffffff8111156129ff575f5ffd5b612a0b8582860161281f565b9150509250929050565b5f5f5f60608486031215612a27575f5ffd5b8335612a32816125dc565b9250602084013567ffffffffffffffff811115612a4d575f5ffd5b612a598682870161281f565b93969395505050506040919091013590565b5f5f60408385031215612a7c575f5ffd5b823567ffffffffffffffff811115612a92575f5ffd5b8301601f81018513612aa2575f5ffd5b8035612ab06126de8261269e565b8082825260208201915060208360051b850101925087831115612ad1575f5ffd5b6020840193505b82841015612af3578335825260209384019390910190612ad8565b9450505050602083013567ffffffffffffffff811115612b11575f5ffd5b612a0b858286016126c1565b7f4e487b71000000000000000000000000000000000000000000000000000000005f52602160045260245ffd5b6020810160048310612b83577f4e487b71000000000000000000000000000000000000000000000000000000005f52602160045260245ffd5b91905290565b5f81518084528060208401602086015e5f6020828601015260207fffffffffffffffffffffffffffffffffffffffffffffffffffffffffffffffe0601f83011685010191505092915050565b602081525f61261b6020830184612b89565b7f4e487b71000000000000000000000000000000000000000000000000000000005f52603260045260245ffd5b5f8151808452602084019350602083015f5b82811015612c5a57815173ffffffffffffffffffffffffffffffffffffffff16865260209586019590910190600101612c26565b5093949350505050565b604081525f612c766040830185612c14565b82810360208401528084518083526020830191506020860192505f5b81811015612cb25783511515835260209384019390920191600101612c92565b50909695505050505050565b5f60208284031215612cce575f5ffd5b5051919050565b5f60208284031215612ce5575f5ffd5b815161261b81612734565b73ffffffffffffffffffffffffffffffffffffffff84168152826020820152606060408201525f612d246060830184612b89565b95945050505050565b5f60208284031215612d3d575f5ffd5b815161261b816125dc565b7f4e487b71000000000000000000000000000000000000000000000000000000005f52601160045260245ffd5b5f7fffffffffffffffffffffffffffffffffffffffffffffffffffffffffffffffff8203612da557612da5612d48565b5060010190565b805163ffffffff81168114612dbf575f5ffd5b919050565b5f5f5f5f5f5f5f60e0888a031215612dda575f5ffd5b87516bffffffffffffffffffffffff81168114612df5575f5ffd5b6020890151909750612e06816125dc565b60408901519096509450612e1c60608901612dac565b9350612e2a60808901612dac565b9250612e3860a08901612dac565b915060c088015160068110612e4b575f5ffd5b8091505092959891949750929550565b80820180821115612e6e57612e6e612d48565b92915050565b73ffffffffffffffffffffffffffffffffffffffff8416815273ffffffffffffffffffffffffffffffffffffffff83166020820152606060408201525f612d246060830184612b89565b73ffffffffffffffffffffffffffffffffffffffff84168152606060208201525f612eec6060830185612b89565b9050826040830152949350505050565b828152604060208201525f612f146040830184612b89565b949350505050565b5f81612f2a57612f2a612d48565b507fffffffffffffffffffffffffffffffffffffffffffffffffffffffffffffffff0190565b73ffffffffffffffffffffffffffffffffffffffff8516815273ffffffffffffffffffffffffffffffffffffffff84166020820152608060408201525f612f9a6080830185612b89565b905082606083015295945050505050565b604080825283519082018190525f9060208501906060840190835b81811015612fe4578351835260209384019390920191600101612fc6565b50508381036020850152612ff88186612c14565b969550505050505056fea264697066735822122079585836253cb879c2e3d4fae16b560191bdb81d904b73ea69c6cb8bccc4a10f64736f6c634300081c0033",
  "linkReferences": {},
  "deployedLinkReferences": {}
}